{
  "_format": "hh-sol-artifact-1",
  "contractName": "CeloSaver",
  "sourceName": "contracts/CeloSaver.sol",
  "abi": [
    {
      "inputs": [],
      "stateMutability": "nonpayable",
      "type": "constructor"
    },
    {
      "inputs": [
        {
          "internalType": "address",
          "name": "spender",
          "type": "address"
        },
        {
          "internalType": "uint256",
          "name": "allowance",
          "type": "uint256"
        },
        {
          "internalType": "uint256",
          "name": "needed",
          "type": "uint256"
        }
      ],
      "name": "ERC20InsufficientAllowance",
      "type": "error"
    },
    {
      "inputs": [
        {
          "internalType": "address",
          "name": "sender",
          "type": "address"
        },
        {
          "internalType": "uint256",
          "name": "balance",
          "type": "uint256"
        },
        {
          "internalType": "uint256",
          "name": "needed",
          "type": "uint256"
        }
      ],
      "name": "ERC20InsufficientBalance",
      "type": "error"
    },
    {
      "inputs": [
        {
          "internalType": "address",
          "name": "approver",
          "type": "address"
        }
      ],
      "name": "ERC20InvalidApprover",
      "type": "error"
    },
    {
      "inputs": [
        {
          "internalType": "address",
          "name": "receiver",
          "type": "address"
        }
      ],
      "name": "ERC20InvalidReceiver",
      "type": "error"
    },
    {
      "inputs": [
        {
          "internalType": "address",
          "name": "sender",
          "type": "address"
        }
      ],
      "name": "ERC20InvalidSender",
      "type": "error"
    },
    {
      "inputs": [
        {
          "internalType": "address",
          "name": "spender",
          "type": "address"
        }
      ],
      "name": "ERC20InvalidSpender",
      "type": "error"
    },
    {
      "inputs": [],
      "name": "EnforcedPause",
      "type": "error"
    },
    {
      "inputs": [],
      "name": "ExpectedPause",
      "type": "error"
    },
    {
      "inputs": [
        {
          "internalType": "address",
          "name": "owner",
          "type": "address"
        }
      ],
      "name": "OwnableInvalidOwner",
      "type": "error"
    },
    {
      "inputs": [
        {
          "internalType": "address",
          "name": "account",
          "type": "address"
        }
      ],
      "name": "OwnableUnauthorizedAccount",
      "type": "error"
    },
    {
      "anonymous": false,
      "inputs": [
        {
          "indexed": true,
          "internalType": "address",
          "name": "owner",
          "type": "address"
        },
        {
          "indexed": true,
          "internalType": "address",
          "name": "spender",
          "type": "address"
        },
        {
          "indexed": false,
          "internalType": "uint256",
          "name": "value",
          "type": "uint256"
        }
      ],
      "name": "Approval",
      "type": "event"
    },
    {
      "anonymous": false,
      "inputs": [
        {
          "indexed": true,
          "internalType": "address",
          "name": "user",
          "type": "address"
        },
        {
          "indexed": false,
          "internalType": "uint256",
          "name": "goalId",
          "type": "uint256"
        },
        {
          "indexed": false,
          "internalType": "uint256",
          "name": "amount",
          "type": "uint256"
        }
      ],
      "name": "Deposited",
      "type": "event"
    },
    {
      "anonymous": false,
      "inputs": [
        {
          "indexed": true,
          "internalType": "address",
          "name": "user",
          "type": "address"
        },
        {
          "indexed": false,
          "internalType": "uint256",
          "name": "goalId",
          "type": "uint256"
        },
        {
          "indexed": false,
          "internalType": "string",
          "name": "name",
          "type": "string"
        },
        {
          "indexed": false,
          "internalType": "uint256",
          "name": "targetAmount",
          "type": "uint256"
        },
        {
          "indexed": false,
          "internalType": "uint256",
          "name": "duration",
          "type": "uint256"
        }
      ],
      "name": "GoalCreated",
      "type": "event"
    },
    {
      "anonymous": false,
      "inputs": [
        {
          "indexed": true,
          "internalType": "address",
          "name": "previousOwner",
          "type": "address"
        },
        {
          "indexed": true,
          "internalType": "address",
          "name": "newOwner",
          "type": "address"
        }
      ],
      "name": "OwnershipTransferred",
      "type": "event"
    },
    {
      "anonymous": false,
      "inputs": [
        {
          "indexed": false,
          "internalType": "address",
          "name": "account",
          "type": "address"
        }
      ],
      "name": "Paused",
      "type": "event"
    },
    {
      "anonymous": false,
      "inputs": [
        {
          "indexed": true,
          "internalType": "address",
          "name": "from",
          "type": "address"
        },
        {
          "indexed": true,
          "internalType": "address",
          "name": "to",
          "type": "address"
        },
        {
          "indexed": false,
          "internalType": "uint256",
          "name": "value",
          "type": "uint256"
        }
      ],
      "name": "Transfer",
      "type": "event"
    },
    {
      "anonymous": false,
      "inputs": [
        {
          "indexed": false,
          "internalType": "address",
          "name": "account",
          "type": "address"
        }
      ],
      "name": "Unpaused",
      "type": "event"
    },
    {
      "anonymous": false,
      "inputs": [
        {
          "indexed": true,
          "internalType": "address",
          "name": "user",
          "type": "address"
        },
        {
          "indexed": false,
          "internalType": "uint256",
          "name": "goalId",
          "type": "uint256"
        },
        {
          "indexed": false,
          "internalType": "uint256",
          "name": "amount",
          "type": "uint256"
        }
      ],
      "name": "Withdrawn",
      "type": "event"
    },
    {
      "inputs": [
        {
          "internalType": "address",
          "name": "owner",
          "type": "address"
        },
        {
          "internalType": "address",
          "name": "spender",
          "type": "address"
        }
      ],
      "name": "allowance",
      "outputs": [
        {
          "internalType": "uint256",
          "name": "",
          "type": "uint256"
        }
      ],
      "stateMutability": "view",
      "type": "function"
    },
    {
      "inputs": [
        {
          "internalType": "address",
          "name": "spender",
          "type": "address"
        },
        {
          "internalType": "uint256",
          "name": "value",
          "type": "uint256"
        }
      ],
      "name": "approve",
      "outputs": [
        {
          "internalType": "bool",
          "name": "",
          "type": "bool"
        }
      ],
      "stateMutability": "nonpayable",
      "type": "function"
    },
    {
      "inputs": [
        {
          "internalType": "address",
          "name": "account",
          "type": "address"
        }
      ],
      "name": "balanceOf",
      "outputs": [
        {
          "internalType": "uint256",
          "name": "",
          "type": "uint256"
        }
      ],
      "stateMutability": "view",
      "type": "function"
    },
    {
      "inputs": [
        {
          "internalType": "uint256",
          "name": "value",
          "type": "uint256"
        }
      ],
      "name": "burn",
      "outputs": [],
      "stateMutability": "nonpayable",
      "type": "function"
    },
    {
      "inputs": [
        {
          "internalType": "address",
          "name": "account",
          "type": "address"
        },
        {
          "internalType": "uint256",
          "name": "value",
          "type": "uint256"
        }
      ],
      "name": "burnFrom",
      "outputs": [],
      "stateMutability": "nonpayable",
      "type": "function"
    },
    {
      "inputs": [
        {
          "internalType": "string",
          "name": "_name",
          "type": "string"
        },
        {
          "internalType": "uint256",
          "name": "_targetAmount",
          "type": "uint256"
        },
        {
          "internalType": "uint256",
          "name": "_durationInDays",
          "type": "uint256"
        }
      ],
      "name": "createGoal",
      "outputs": [],
      "stateMutability": "nonpayable",
      "type": "function"
    },
    {
      "inputs": [],
      "name": "decimals",
      "outputs": [
        {
          "internalType": "uint8",
          "name": "",
          "type": "uint8"
        }
      ],
      "stateMutability": "view",
      "type": "function"
    },
    {
      "inputs": [
        {
          "internalType": "uint256",
          "name": "_goalId",
          "type": "uint256"
        }
      ],
      "name": "deposit",
      "outputs": [],
      "stateMutability": "payable",
      "type": "function"
    },
    {
      "inputs": [
        {
          "internalType": "address",
          "name": "_user",
          "type": "address"
        }
      ],
      "name": "getUserGoals",
      "outputs": [
        {
          "components": [
            {
              "internalType": "string",
              "name": "name",
              "type": "string"
            },
            {
              "internalType": "uint256",
              "name": "targetAmount",
              "type": "uint256"
            },
            {
              "internalType": "uint256",
              "name": "currentAmount",
              "type": "uint256"
            },
            {
              "internalType": "uint256",
              "name": "deadline",
              "type": "uint256"
            },
            {
              "internalType": "bool",
              "name": "isActive",
              "type": "bool"
            },
            {
              "internalType": "uint256",
              "name": "createdAt",
              "type": "uint256"
            }
          ],
          "internalType": "struct CeloSaver.SavingsGoal[]",
          "name": "",
          "type": "tuple[]"
        }
      ],
      "stateMutability": "view",
      "type": "function"
    },
    {
      "inputs": [],
      "name": "name",
      "outputs": [
        {
          "internalType": "string",
          "name": "",
          "type": "string"
        }
      ],
      "stateMutability": "view",
      "type": "function"
    },
    {
      "inputs": [],
      "name": "owner",
      "outputs": [
        {
          "internalType": "address",
          "name": "",
          "type": "address"
        }
      ],
      "stateMutability": "view",
      "type": "function"
    },
    {
      "inputs": [],
      "name": "paused",
      "outputs": [
        {
          "internalType": "bool",
          "name": "",
          "type": "bool"
        }
      ],
      "stateMutability": "view",
      "type": "function"
    },
    {
      "inputs": [],
      "name": "renounceOwnership",
      "outputs": [],
      "stateMutability": "nonpayable",
      "type": "function"
    },
    {
      "inputs": [],
      "name": "symbol",
      "outputs": [
        {
          "internalType": "string",
          "name": "",
          "type": "string"
        }
      ],
      "stateMutability": "view",
      "type": "function"
    },
    {
      "inputs": [],
      "name": "totalSupply",
      "outputs": [
        {
          "internalType": "uint256",
          "name": "",
          "type": "uint256"
        }
      ],
      "stateMutability": "view",
      "type": "function"
    },
    {
      "inputs": [
        {
          "internalType": "address",
          "name": "to",
          "type": "address"
        },
        {
          "internalType": "uint256",
          "name": "value",
          "type": "uint256"
        }
      ],
      "name": "transfer",
      "outputs": [
        {
          "internalType": "bool",
          "name": "",
          "type": "bool"
        }
      ],
      "stateMutability": "nonpayable",
      "type": "function"
    },
    {
      "inputs": [
        {
          "internalType": "address",
          "name": "from",
          "type": "address"
        },
        {
          "internalType": "address",
          "name": "to",
          "type": "address"
        },
        {
          "internalType": "uint256",
          "name": "value",
          "type": "uint256"
        }
      ],
      "name": "transferFrom",
      "outputs": [
        {
          "internalType": "bool",
          "name": "",
          "type": "bool"
        }
      ],
      "stateMutability": "nonpayable",
      "type": "function"
    },
    {
      "inputs": [
        {
          "internalType": "address",
          "name": "newOwner",
          "type": "address"
        }
      ],
      "name": "transferOwnership",
      "outputs": [],
      "stateMutability": "nonpayable",
      "type": "function"
    },
    {
      "inputs": [
        {
          "internalType": "address",
          "name": "",
          "type": "address"
        },
        {
          "internalType": "uint256",
          "name": "",
          "type": "uint256"
        }
      ],
      "name": "userGoals",
      "outputs": [
        {
          "internalType": "string",
          "name": "name",
          "type": "string"
        },
        {
          "internalType": "uint256",
          "name": "targetAmount",
          "type": "uint256"
        },
        {
          "internalType": "uint256",
          "name": "currentAmount",
          "type": "uint256"
        },
        {
          "internalType": "uint256",
          "name": "deadline",
          "type": "uint256"
        },
        {
          "internalType": "bool",
          "name": "isActive",
          "type": "bool"
        },
        {
          "internalType": "uint256",
          "name": "createdAt",
          "type": "uint256"
        }
      ],
      "stateMutability": "view",
      "type": "function"
    },
    {
      "inputs": [
        {
          "internalType": "uint256",
          "name": "_goalId",
          "type": "uint256"
        }
      ],
      "name": "withdraw",
      "outputs": [],
      "stateMutability": "nonpayable",
      "type": "function"
    }
  ],
  "bytecode": "0x60806040523480156200001157600080fd5b50336040518060400160405280600981526020017f43656c6f536176657200000000000000000000000000000000000000000000008152506040518060400160405280600481526020017f4353565200000000000000000000000000000000000000000000000000000000815250816003908162000090919062000818565b508060049081620000a2919062000818565b505050600073ffffffffffffffffffffffffffffffffffffffff168173ffffffffffffffffffffffffffffffffffffffff16036200011a5760006040517f1e4fbdf700000000000000000000000000000000000000000000000000000000815260040162000111919062000944565b60405180910390fd5b6200012b816200017160201b60201c565b506200016b33620001416200023760201b60201c565b600a6200014f919062000af1565b620f42406200015f919062000b42565b6200024060201b60201c565b62000c33565b6000600560019054906101000a900473ffffffffffffffffffffffffffffffffffffffff16905081600560016101000a81548173ffffffffffffffffffffffffffffffffffffffff021916908373ffffffffffffffffffffffffffffffffffffffff1602179055508173ffffffffffffffffffffffffffffffffffffffff168173ffffffffffffffffffffffffffffffffffffffff167f8be0079c531659141344cd1fd0a4f28419497f9722a3daafe3b4186f6b6457e060405160405180910390a35050565b60006012905090565b600073ffffffffffffffffffffffffffffffffffffffff168273ffffffffffffffffffffffffffffffffffffffff1603620002b55760006040517fec442f05000000000000000000000000000000000000000000000000000000008152600401620002ac919062000944565b60405180910390fd5b620002c960008383620002cd60201b60201c565b5050565b620002e0838383620002e560201b60201c565b505050565b620002f56200030d60201b60201c565b620003088383836200035760201b60201c565b505050565b6200031d6200058760201b60201c565b1562000355576040517fd93c066500000000000000000000000000000000000000000000000000000000815260040160405180910390fd5b565b600073ffffffffffffffffffffffffffffffffffffffff168373ffffffffffffffffffffffffffffffffffffffff1603620003ad578060026000828254620003a0919062000b8d565b9250508190555062000483565b60008060008573ffffffffffffffffffffffffffffffffffffffff1673ffffffffffffffffffffffffffffffffffffffff168152602001908152602001600020549050818110156200043c578381836040517fe450d38c000000000000000000000000000000000000000000000000000000008152600401620004339392919062000bd9565b60405180910390fd5b8181036000808673ffffffffffffffffffffffffffffffffffffffff1673ffffffffffffffffffffffffffffffffffffffff16815260200190815260200160002081905550505b600073ffffffffffffffffffffffffffffffffffffffff168273ffffffffffffffffffffffffffffffffffffffff1603620004ce57806002600082825403925050819055506200051b565b806000808473ffffffffffffffffffffffffffffffffffffffff1673ffffffffffffffffffffffffffffffffffffffff168152602001908152602001600020600082825401925050819055505b8173ffffffffffffffffffffffffffffffffffffffff168373ffffffffffffffffffffffffffffffffffffffff167fddf252ad1be2c89b69c2b068fc378daa952ba7f163c4a11628f55a4df523b3ef836040516200057a919062000c16565b60405180910390a3505050565b6000600560009054906101000a900460ff16905090565b600081519050919050565b7f4e487b7100000000000000000000000000000000000000000000000000000000600052604160045260246000fd5b7f4e487b7100000000000000000000000000000000000000000000000000000000600052602260045260246000fd5b600060028204905060018216806200062057607f821691505b602082108103620006365762000635620005d8565b5b50919050565b60008190508160005260206000209050919050565b60006020601f8301049050919050565b600082821b905092915050565b600060088302620006a07fffffffffffffffffffffffffffffffffffffffffffffffffffffffffffffffff8262000661565b620006ac868362000661565b95508019841693508086168417925050509392505050565b6000819050919050565b6000819050919050565b6000620006f9620006f3620006ed84620006c4565b620006ce565b620006c4565b9050919050565b6000819050919050565b6200071583620006d8565b6200072d620007248262000700565b8484546200066e565b825550505050565b600090565b6200074462000735565b620007518184846200070a565b505050565b5b8181101562000779576200076d6000826200073a565b60018101905062000757565b5050565b601f821115620007c85762000792816200063c565b6200079d8462000651565b81016020851015620007ad578190505b620007c5620007bc8562000651565b83018262000756565b50505b505050565b600082821c905092915050565b6000620007ed60001984600802620007cd565b1980831691505092915050565b6000620008088383620007da565b9150826002028217905092915050565b62000823826200059e565b67ffffffffffffffff8111156200083f576200083e620005a9565b5b6200084b825462000607565b620008588282856200077d565b600060209050601f8311600181146200089057600084156200087b578287015190505b620008878582620007fa565b865550620008f7565b601f198416620008a0866200063c565b60005b82811015620008ca57848901518255600182019150602085019450602081019050620008a3565b86831015620008ea5784890151620008e6601f891682620007da565b8355505b6001600288020188555050505b505050505050565b600073ffffffffffffffffffffffffffffffffffffffff82169050919050565b60006200092c82620008ff565b9050919050565b6200093e816200091f565b82525050565b60006020820190506200095b600083018462000933565b92915050565b7f4e487b7100000000000000000000000000000000000000000000000000000000600052601160045260246000fd5b60008160011c9050919050565b6000808291508390505b6001851115620009ef57808604811115620009c757620009c662000961565b5b6001851615620009d75780820291505b8081029050620009e78562000990565b9450620009a7565b94509492505050565b60008262000a0a576001905062000add565b8162000a1a576000905062000add565b816001811462000a33576002811462000a3e5762000a74565b600191505062000add565b60ff84111562000a535762000a5262000961565b5b8360020a91508482111562000a6d5762000a6c62000961565b5b5062000add565b5060208310610133831016604e8410600b841016171562000aae5782820a90508381111562000aa85762000aa762000961565b5b62000add565b62000abd84848460016200099d565b9250905081840481111562000ad75762000ad662000961565b5b81810290505b9392505050565b600060ff82169050919050565b600062000afe82620006c4565b915062000b0b8362000ae4565b925062000b3a7fffffffffffffffffffffffffffffffffffffffffffffffffffffffffffffffff8484620009f8565b905092915050565b600062000b4f82620006c4565b915062000b5c83620006c4565b925082820262000b6c81620006c4565b9150828204841483151762000b865762000b8562000961565b5b5092915050565b600062000b9a82620006c4565b915062000ba783620006c4565b925082820190508082111562000bc25762000bc162000961565b5b92915050565b62000bd381620006c4565b82525050565b600060608201905062000bf0600083018662000933565b62000bff602083018562000bc8565b62000c0e604083018462000bc8565b949350505050565b600060208201905062000c2d600083018462000bc8565b92915050565b6127fa8062000c436000396000f3fe60806040526004361061011f5760003560e01c806370a08231116100a0578063a9059cbb11610064578063a9059cbb146103d5578063b6b3eedf14610412578063b6b55f2514610454578063dd62ed3e14610470578063f2fde38b146104ad5761011f565b806370a0823114610302578063715018a61461033f57806379cc6790146103565780638da5cb5b1461037f57806395d89b41146103aa5761011f565b80632e1a7d4d116100e75780632e1a7d4d1461021d578063313ce5671461024657806335742c631461027157806342966c68146102ae5780635c975abb146102d75761011f565b806306fdde0314610124578063095ea7b31461014f578063113d22781461018c57806318160ddd146101b557806323b872dd146101e0575b600080fd5b34801561013057600080fd5b506101396104d6565b60405161014691906119d9565b60405180910390f35b34801561015b57600080fd5b5061017660048036038101906101719190611aa3565b610568565b6040516101839190611afe565b60405180910390f35b34801561019857600080fd5b506101b360048036038101906101ae9190611c4e565b61058b565b005b3480156101c157600080fd5b506101ca6107ca565b6040516101d79190611ccc565b60405180910390f35b3480156101ec57600080fd5b5061020760048036038101906102029190611ce7565b6107d4565b6040516102149190611afe565b60405180910390f35b34801561022957600080fd5b50610244600480360381019061023f9190611d3a565b610803565b005b34801561025257600080fd5b5061025b610a5e565b6040516102689190611d83565b60405180910390f35b34801561027d57600080fd5b5061029860048036038101906102939190611d9e565b610a67565b6040516102a59190611f7e565b60405180910390f35b3480156102ba57600080fd5b506102d560048036038101906102d09190611d3a565b610bda565b005b3480156102e357600080fd5b506102ec610bee565b6040516102f99190611afe565b60405180910390f35b34801561030e57600080fd5b5061032960048036038101906103249190611d9e565b610c05565b6040516103369190611ccc565b60405180910390f35b34801561034b57600080fd5b50610354610c4d565b005b34801561036257600080fd5b5061037d60048036038101906103789190611aa3565b610c61565b005b34801561038b57600080fd5b50610394610c81565b6040516103a19190611faf565b60405180910390f35b3480156103b657600080fd5b506103bf610cab565b6040516103cc91906119d9565b60405180910390f35b3480156103e157600080fd5b506103fc60048036038101906103f79190611aa3565b610d3d565b6040516104099190611afe565b60405180910390f35b34801561041e57600080fd5b5061043960048036038101906104349190611aa3565b610d60565b60405161044b96959493929190611fca565b60405180910390f35b61046e60048036038101906104699190611d3a565b610e4e565b005b34801561047c57600080fd5b5061049760048036038101906104929190612032565b611065565b6040516104a49190611ccc565b60405180910390f35b3480156104b957600080fd5b506104d460048036038101906104cf9190611d9e565b6110ec565b005b6060600380546104e5906120a1565b80601f0160208091040260200160405190810160405280929190818152602001828054610511906120a1565b801561055e5780601f106105335761010080835404028352916020019161055e565b820191906000526020600020905b81548152906001019060200180831161054157829003601f168201915b5050505050905090565b600080610573611172565b905061058081858561117a565b600191505092915050565b600082116105ce576040517f08c379a00000000000000000000000000000000000000000000000000000000081526004016105c59061211e565b60405180910390fd5b60008111610611576040517f08c379a00000000000000000000000000000000000000000000000000000000081526004016106089061218a565b60405180910390fd5b6000600660003373ffffffffffffffffffffffffffffffffffffffff1673ffffffffffffffffffffffffffffffffffffffff1681526020019081526020016000208054905090506000620151808361066991906121d9565b42610674919061221b565b9050600660003373ffffffffffffffffffffffffffffffffffffffff1673ffffffffffffffffffffffffffffffffffffffff1681526020019081526020016000206040518060c0016040528087815260200186815260200160008152602001838152602001600115158152602001428152509080600181540180825580915050600190039060005260206000209060060201600090919091909150600082015181600001908161072491906123fb565b5060208201518160010155604082015181600201556060820151816003015560808201518160040160006101000a81548160ff02191690831515021790555060a0820151816005015550503373ffffffffffffffffffffffffffffffffffffffff167fb7904dbdcb6700a49a6914ea6cbb34cf3ca1ff25f06c6b0ea948b79076a20f45838787876040516107bb94939291906124cd565b60405180910390a25050505050565b6000600254905090565b6000806107df611172565b90506107ec85828561118c565b6107f7858585611221565b60019150509392505050565b600660003373ffffffffffffffffffffffffffffffffffffffff1673ffffffffffffffffffffffffffffffffffffffff168152602001908152602001600020805490508110610887576040517f08c379a000000000000000000000000000000000000000000000000000000000815260040161087e90612565565b60405180910390fd5b6000600660003373ffffffffffffffffffffffffffffffffffffffff1673ffffffffffffffffffffffffffffffffffffffff16815260200190815260200160002082815481106108da576108d9612585565b5b906000526020600020906006020190508060040160009054906101000a900460ff16158061090c575080600301544210155b61094b576040517f08c379a000000000000000000000000000000000000000000000000000000000815260040161094290612600565b60405180910390fd5b6000816002015411610992576040517f08c379a00000000000000000000000000000000000000000000000000000000081526004016109899061266c565b60405180910390fd5b6000816002015490506000826002018190555060008260040160006101000a81548160ff0219169083151502179055503373ffffffffffffffffffffffffffffffffffffffff166108fc829081150290604051600060405180830381858888f19350505050158015610a08573d6000803e3d6000fd5b503373ffffffffffffffffffffffffffffffffffffffff167f92ccf450a286a957af52509bc1c9939d1a6a481783e142e41e2499f0bb66ebc68483604051610a5192919061268c565b60405180910390a2505050565b60006012905090565b6060600660008373ffffffffffffffffffffffffffffffffffffffff1673ffffffffffffffffffffffffffffffffffffffff168152602001908152602001600020805480602002602001604051908101604052809291908181526020016000905b82821015610bcf57838290600052602060002090600602016040518060c0016040529081600082018054610afb906120a1565b80601f0160208091040260200160405190810160405280929190818152602001828054610b27906120a1565b8015610b745780601f10610b4957610100808354040283529160200191610b74565b820191906000526020600020905b815481529060010190602001808311610b5757829003601f168201915b505050505081526020016001820154815260200160028201548152602001600382015481526020016004820160009054906101000a900460ff1615151515815260200160058201548152505081526020019060010190610ac8565b505050509050919050565b610beb610be5611172565b82611315565b50565b6000600560009054906101000a900460ff16905090565b60008060008373ffffffffffffffffffffffffffffffffffffffff1673ffffffffffffffffffffffffffffffffffffffff168152602001908152602001600020549050919050565b610c55611397565b610c5f600061141e565b565b610c7382610c6d611172565b8361118c565b610c7d8282611315565b5050565b6000600560019054906101000a900473ffffffffffffffffffffffffffffffffffffffff16905090565b606060048054610cba906120a1565b80601f0160208091040260200160405190810160405280929190818152602001828054610ce6906120a1565b8015610d335780601f10610d0857610100808354040283529160200191610d33565b820191906000526020600020905b815481529060010190602001808311610d1657829003601f168201915b5050505050905090565b600080610d48611172565b9050610d55818585611221565b600191505092915050565b60066020528160005260406000208181548110610d7c57600080fd5b906000526020600020906006020160009150915050806000018054610da0906120a1565b80601f0160208091040260200160405190810160405280929190818152602001828054610dcc906120a1565b8015610e195780601f10610dee57610100808354040283529160200191610e19565b820191906000526020600020905b815481529060010190602001808311610dfc57829003601f168201915b5050505050908060010154908060020154908060030154908060040160009054906101000a900460ff16908060050154905086565b600660003373ffffffffffffffffffffffffffffffffffffffff1673ffffffffffffffffffffffffffffffffffffffff168152602001908152602001600020805490508110610ed2576040517f08c379a0000000000000000000000000000000000000000000000000000000008152600401610ec990612565565b60405180910390fd5b6000600660003373ffffffffffffffffffffffffffffffffffffffff1673ffffffffffffffffffffffffffffffffffffffff1681526020019081526020016000208281548110610f2557610f24612585565b5b906000526020600020906006020190508060040160009054906101000a900460ff16610f86576040517f08c379a0000000000000000000000000000000000000000000000000000000008152600401610f7d90612701565b60405180910390fd5b60003411610fc9576040517f08c379a0000000000000000000000000000000000000000000000000000000008152600401610fc09061276d565b60405180910390fd5b34816002016000828254610fdd919061221b565b9250508190555080600101548160020154106110115760008160040160006101000a81548160ff0219169083151502179055505b3373ffffffffffffffffffffffffffffffffffffffff167f73a19dd210f1a7f902193214c0ee91dd35ee5b4d920cba8d519eca65a7b488ca833460405161105992919061268c565b60405180910390a25050565b6000600160008473ffffffffffffffffffffffffffffffffffffffff1673ffffffffffffffffffffffffffffffffffffffff16815260200190815260200160002060008373ffffffffffffffffffffffffffffffffffffffff1673ffffffffffffffffffffffffffffffffffffffff16815260200190815260200160002054905092915050565b6110f4611397565b600073ffffffffffffffffffffffffffffffffffffffff168173ffffffffffffffffffffffffffffffffffffffff16036111665760006040517f1e4fbdf700000000000000000000000000000000000000000000000000000000815260040161115d9190611faf565b60405180910390fd5b61116f8161141e565b50565b600033905090565b61118783838360016114e4565b505050565b60006111988484611065565b90507fffffffffffffffffffffffffffffffffffffffffffffffffffffffffffffffff81101561121b578181101561120b578281836040517ffb8f41b20000000000000000000000000000000000000000000000000000000081526004016112029392919061278d565b60405180910390fd5b61121a848484840360006114e4565b5b50505050565b600073ffffffffffffffffffffffffffffffffffffffff168373ffffffffffffffffffffffffffffffffffffffff16036112935760006040517f96c6fd1e00000000000000000000000000000000000000000000000000000000815260040161128a9190611faf565b60405180910390fd5b600073ffffffffffffffffffffffffffffffffffffffff168273ffffffffffffffffffffffffffffffffffffffff16036113055760006040517fec442f050000000000000000000000000000000000000000000000000000000081526004016112fc9190611faf565b60405180910390fd5b6113108383836116bb565b505050565b600073ffffffffffffffffffffffffffffffffffffffff168273ffffffffffffffffffffffffffffffffffffffff16036113875760006040517f96c6fd1e00000000000000000000000000000000000000000000000000000000815260040161137e9190611faf565b60405180910390fd5b611393826000836116bb565b5050565b61139f611172565b73ffffffffffffffffffffffffffffffffffffffff166113bd610c81565b73ffffffffffffffffffffffffffffffffffffffff161461141c576113e0611172565b6040517f118cdaa70000000000000000000000000000000000000000000000000000000081526004016114139190611faf565b60405180910390fd5b565b6000600560019054906101000a900473ffffffffffffffffffffffffffffffffffffffff16905081600560016101000a81548173ffffffffffffffffffffffffffffffffffffffff021916908373ffffffffffffffffffffffffffffffffffffffff1602179055508173ffffffffffffffffffffffffffffffffffffffff168173ffffffffffffffffffffffffffffffffffffffff167f8be0079c531659141344cd1fd0a4f28419497f9722a3daafe3b4186f6b6457e060405160405180910390a35050565b600073ffffffffffffffffffffffffffffffffffffffff168473ffffffffffffffffffffffffffffffffffffffff16036115565760006040517fe602df0500000000000000000000000000000000000000000000000000000000815260040161154d9190611faf565b60405180910390fd5b600073ffffffffffffffffffffffffffffffffffffffff168373ffffffffffffffffffffffffffffffffffffffff16036115c85760006040517f94280d620000000000000000000000000000000000000000000000000000000081526004016115bf9190611faf565b60405180910390fd5b81600160008673ffffffffffffffffffffffffffffffffffffffff1673ffffffffffffffffffffffffffffffffffffffff16815260200190815260200160002060008573ffffffffffffffffffffffffffffffffffffffff1673ffffffffffffffffffffffffffffffffffffffff1681526020019081526020016000208190555080156116b5578273ffffffffffffffffffffffffffffffffffffffff168473ffffffffffffffffffffffffffffffffffffffff167f8c5be1e5ebec7d5bd14f71427d1e84f3dd0314c0f7b2291e5b200ac8c7c3b925846040516116ac9190611ccc565b60405180910390a35b50505050565b6116c68383836116cb565b505050565b6116d36116e3565b6116de838383611724565b505050565b6116eb610bee565b15611722576040517fd93c066500000000000000000000000000000000000000000000000000000000815260040160405180910390fd5b565b600073ffffffffffffffffffffffffffffffffffffffff168373ffffffffffffffffffffffffffffffffffffffff160361177657806002600082825461176a919061221b565b92505081905550611849565b60008060008573ffffffffffffffffffffffffffffffffffffffff1673ffffffffffffffffffffffffffffffffffffffff16815260200190815260200160002054905081811015611802578381836040517fe450d38c0000000000000000000000000000000000000000000000000000000081526004016117f99392919061278d565b60405180910390fd5b8181036000808673ffffffffffffffffffffffffffffffffffffffff1673ffffffffffffffffffffffffffffffffffffffff16815260200190815260200160002081905550505b600073ffffffffffffffffffffffffffffffffffffffff168273ffffffffffffffffffffffffffffffffffffffff160361189257806002600082825403925050819055506118df565b806000808473ffffffffffffffffffffffffffffffffffffffff1673ffffffffffffffffffffffffffffffffffffffff168152602001908152602001600020600082825401925050819055505b8173ffffffffffffffffffffffffffffffffffffffff168373ffffffffffffffffffffffffffffffffffffffff167fddf252ad1be2c89b69c2b068fc378daa952ba7f163c4a11628f55a4df523b3ef8360405161193c9190611ccc565b60405180910390a3505050565b600081519050919050565b600082825260208201905092915050565b60005b83811015611983578082015181840152602081019050611968565b60008484015250505050565b6000601f19601f8301169050919050565b60006119ab82611949565b6119b58185611954565b93506119c5818560208601611965565b6119ce8161198f565b840191505092915050565b600060208201905081810360008301526119f381846119a0565b905092915050565b6000604051905090565b600080fd5b600080fd5b600073ffffffffffffffffffffffffffffffffffffffff82169050919050565b6000611a3a82611a0f565b9050919050565b611a4a81611a2f565b8114611a5557600080fd5b50565b600081359050611a6781611a41565b92915050565b6000819050919050565b611a8081611a6d565b8114611a8b57600080fd5b50565b600081359050611a9d81611a77565b92915050565b60008060408385031215611aba57611ab9611a05565b5b6000611ac885828601611a58565b9250506020611ad985828601611a8e565b9150509250929050565b60008115159050919050565b611af881611ae3565b82525050565b6000602082019050611b136000830184611aef565b92915050565b600080fd5b600080fd5b7f4e487b7100000000000000000000000000000000000000000000000000000000600052604160045260246000fd5b611b5b8261198f565b810181811067ffffffffffffffff82111715611b7a57611b79611b23565b5b80604052505050565b6000611b8d6119fb565b9050611b998282611b52565b919050565b600067ffffffffffffffff821115611bb957611bb8611b23565b5b611bc28261198f565b9050602081019050919050565b82818337600083830152505050565b6000611bf1611bec84611b9e565b611b83565b905082815260208101848484011115611c0d57611c0c611b1e565b5b611c18848285611bcf565b509392505050565b600082601f830112611c3557611c34611b19565b5b8135611c45848260208601611bde565b91505092915050565b600080600060608486031215611c6757611c66611a05565b5b600084013567ffffffffffffffff811115611c8557611c84611a0a565b5b611c9186828701611c20565b9350506020611ca286828701611a8e565b9250506040611cb386828701611a8e565b9150509250925092565b611cc681611a6d565b82525050565b6000602082019050611ce16000830184611cbd565b92915050565b600080600060608486031215611d0057611cff611a05565b5b6000611d0e86828701611a58565b9350506020611d1f86828701611a58565b9250506040611d3086828701611a8e565b9150509250925092565b600060208284031215611d5057611d4f611a05565b5b6000611d5e84828501611a8e565b91505092915050565b600060ff82169050919050565b611d7d81611d67565b82525050565b6000602082019050611d986000830184611d74565b92915050565b600060208284031215611db457611db3611a05565b5b6000611dc284828501611a58565b91505092915050565b600081519050919050565b600082825260208201905092915050565b6000819050602082019050919050565b600082825260208201905092915050565b6000611e1382611949565b611e1d8185611df7565b9350611e2d818560208601611965565b611e368161198f565b840191505092915050565b611e4a81611a6d565b82525050565b611e5981611ae3565b82525050565b600060c0830160008301518482036000860152611e7c8282611e08565b9150506020830151611e916020860182611e41565b506040830151611ea46040860182611e41565b506060830151611eb76060860182611e41565b506080830151611eca6080860182611e50565b5060a0830151611edd60a0860182611e41565b508091505092915050565b6000611ef48383611e5f565b905092915050565b6000602082019050919050565b6000611f1482611dcb565b611f1e8185611dd6565b935083602082028501611f3085611de7565b8060005b85811015611f6c5784840389528151611f4d8582611ee8565b9450611f5883611efc565b925060208a01995050600181019050611f34565b50829750879550505050505092915050565b60006020820190508181036000830152611f988184611f09565b905092915050565b611fa981611a2f565b82525050565b6000602082019050611fc46000830184611fa0565b92915050565b600060c0820190508181036000830152611fe481896119a0565b9050611ff36020830188611cbd565b6120006040830187611cbd565b61200d6060830186611cbd565b61201a6080830185611aef565b61202760a0830184611cbd565b979650505050505050565b6000806040838503121561204957612048611a05565b5b600061205785828601611a58565b925050602061206885828601611a58565b9150509250929050565b7f4e487b7100000000000000000000000000000000000000000000000000000000600052602260045260246000fd5b600060028204905060018216806120b957607f821691505b6020821081036120cc576120cb612072565b5b50919050565b7f546172676574206d757374206265203e20300000000000000000000000000000600082015250565b6000612108601283611954565b9150612113826120d2565b602082019050919050565b60006020820190508181036000830152612137816120fb565b9050919050565b7f4475726174696f6e206d757374206265203e2030000000000000000000000000600082015250565b6000612174601483611954565b915061217f8261213e565b602082019050919050565b600060208201905081810360008301526121a381612167565b9050919050565b7f4e487b7100000000000000000000000000000000000000000000000000000000600052601160045260246000fd5b60006121e482611a6d565b91506121ef83611a6d565b92508282026121fd81611a6d565b91508282048414831517612214576122136121aa565b5b5092915050565b600061222682611a6d565b915061223183611a6d565b9250828201905080821115612249576122486121aa565b5b92915050565b60008190508160005260206000209050919050565b60006020601f8301049050919050565b600082821b905092915050565b6000600883026122b17fffffffffffffffffffffffffffffffffffffffffffffffffffffffffffffffff82612274565b6122bb8683612274565b95508019841693508086168417925050509392505050565b6000819050919050565b60006122f86122f36122ee84611a6d565b6122d3565b611a6d565b9050919050565b6000819050919050565b612312836122dd565b61232661231e826122ff565b848454612281565b825550505050565b600090565b61233b61232e565b612346818484612309565b505050565b5b8181101561236a5761235f600082612333565b60018101905061234c565b5050565b601f8211156123af576123808161224f565b61238984612264565b81016020851015612398578190505b6123ac6123a485612264565b83018261234b565b50505b505050565b600082821c905092915050565b60006123d2600019846008026123b4565b1980831691505092915050565b60006123eb83836123c1565b9150826002028217905092915050565b61240482611949565b67ffffffffffffffff81111561241d5761241c611b23565b5b61242782546120a1565b61243282828561236e565b600060209050601f8311600181146124655760008415612453578287015190505b61245d85826123df565b8655506124c5565b601f1984166124738661224f565b60005b8281101561249b57848901518255600182019150602085019450602081019050612476565b868310156124b857848901516124b4601f8916826123c1565b8355505b6001600288020188555050505b505050505050565b60006080820190506124e26000830187611cbd565b81810360208301526124f481866119a0565b90506125036040830185611cbd565b6125106060830184611cbd565b95945050505050565b7f476f616c20646f6573206e6f7420657869737400000000000000000000000000600082015250565b600061254f601383611954565b915061255a82612519565b602082019050919050565b6000602082019050818103600083015261257e81612542565b9050919050565b7f4e487b7100000000000000000000000000000000000000000000000000000000600052603260045260246000fd5b7f476f616c207374696c6c20616374697665000000000000000000000000000000600082015250565b60006125ea601183611954565b91506125f5826125b4565b602082019050919050565b60006020820190508181036000830152612619816125dd565b9050919050565b7f4e6f2066756e647320746f207769746864726177000000000000000000000000600082015250565b6000612656601483611954565b915061266182612620565b602082019050919050565b6000602082019050818103600083015261268581612649565b9050919050565b60006040820190506126a16000830185611cbd565b6126ae6020830184611cbd565b9392505050565b7f476f616c206973206e6f74206163746976650000000000000000000000000000600082015250565b60006126eb601283611954565b91506126f6826126b5565b602082019050919050565b6000602082019050818103600083015261271a816126de565b9050919050565b7f4d7573742073656e642043454c4f2d5300000000000000000000000000000000600082015250565b6000612757601083611954565b915061276282612721565b602082019050919050565b600060208201905081810360008301526127868161274a565b9050919050565b60006060820190506127a26000830186611fa0565b6127af6020830185611cbd565b6127bc6040830184611cbd565b94935050505056fea2646970667358221220b0f45031671a9a925f6399808ea4ecb3589abde81c5c4c169e6f2f5dff9389fe64736f6c63430008140033",
  "linkReferences": {},
  "deployedLinkReferences": {}
}